{"contracts/BasicDutchAuction.sol":{"BasicDutchAuction":{"abi":[{"inputs":[{"internalType":"uint256","name":"_reservePrice","type":"uint256"},{"internalType":"uint256","name":"_numBlocksAuctionOpen","type":"uint256"},{"internalType":"uint256","name":"_offerPriceDecrement","type":"uint256"}],"stateMutability":"nonpayable","type":"constructor"},{"inputs":[],"name":"acceptingBids","outputs":[{"internalType":"bool","name":"","type":"bool"}],"stateMutability":"view","type":"function"},{"inputs":[],"name":"bid","outputs":[{"internalType":"address","name":"","type":"address"}],"stateMutability":"payable","type":"function"},{"inputs":[],"name":"currentPrice","outputs":[{"internalType":"uint256","name":"","type":"uint256"}],"stateMutability":"view","type":"function"},{"inputs":[],"name":"initialPrice","outputs":[{"internalType":"uint256","name":"","type":"uint256"}],"stateMutability":"view","type":"function"},{"inputs":[],"name":"owner","outputs":[{"internalType":"address payable","name":"","type":"address"}],"stateMutability":"view","type":"function"},{"inputs":[],"name":"startingBlock","outputs":[{"internalType":"uint256","name":"","type":"uint256"}],"stateMutability":"view","type":"function"}],"evm":{"bytecode":{"linkReferences":{},"object":"60806040526001600660006101000a81548160ff0219169083151502179055503480156200002c57600080fd5b5060405162000bc938038062000bc98339818101604052810190620000529190620001bc565b6200006e673e2bc8f3faf82db660c01b6200017960201b60201c565b6200008a67dbfeaac4466875fa60c01b6200017960201b60201c565b336000806101000a81548173ffffffffffffffffffffffffffffffffffffffff021916908373ffffffffffffffffffffffffffffffffffffffff160217905550620000e667c39a9f15904b8d1d60c01b6200017960201b60201c565b8082620000f4919062000247565b8362000101919062000292565b6001819055506200012367cb51b2fda93008ec60c01b6200017960201b60201c565b436002819055506200014667dc28e5255ee4d55360c01b6200017960201b60201c565b8060048190555062000169675c6c89b87327e37160c01b6200017960201b60201c565b81600581905550505050620002cd565b50565b600080fd5b6000819050919050565b620001968162000181565b8114620001a257600080fd5b50565b600081519050620001b6816200018b565b92915050565b600080600060608486031215620001d857620001d76200017c565b5b6000620001e886828701620001a5565b9350506020620001fb86828701620001a5565b92505060406200020e86828701620001a5565b9150509250925092565b7f4e487b7100000000000000000000000000000000000000000000000000000000600052601160045260246000fd5b6000620002548262000181565b9150620002618362000181565b9250828202620002718162000181565b915082820484148315176200028b576200028a62000218565b5b5092915050565b60006200029f8262000181565b9150620002ac8362000181565b9250828201905080821115620002c757620002c662000218565b5b92915050565b6108ec80620002dd6000396000f3fe6080604052600436106100555760003560e01c80631998aeef1461005a5780631d0806ae146100785780638da5cb5b146100a35780639d1b464a146100ce578063d91c98d3146100f9578063fdba6a2c14610124575b600080fd5b61006261014f565b60405161006f91906105b5565b60405180910390f35b34801561008457600080fd5b5061008d610528565b60405161009a91906105e9565b60405180910390f35b3480156100af57600080fd5b506100b861052e565b6040516100c59190610625565b60405180910390f35b3480156100da57600080fd5b506100e3610552565b6040516100f091906105e9565b60405180910390f35b34801561010557600080fd5b5061010e610558565b60405161011b91906105e9565b60405180910390f35b34801561013057600080fd5b5061013961055e565b604051610146919061065b565b60405180910390f35b6000610165673e1c635ea87b346860c01b610571565b61017967f040a142a46ab81160c01b610571565b61018d6718f807d315df2a0660c01b610571565b600660009054906101000a900460ff16156101fb576101b667c6d62532cd0a91b160c01b610571565b6101ca67d35a4be0e362bdc160c01b610571565b600554600254436101db91906106a5565b1115600660006101000a81548160ff021916908315150217905550610210565b61020f67903d9d2c014ba57660c01b610571565b5b6102246705a51e03bea53c0860c01b610571565b6102386706e6e7129a94019860c01b610571565b61024c67992e8cad83ec9e8860c01b610571565b600660009054906101000a900460ff1661029b576040517f08c379a000000000000000000000000000000000000000000000000000000000815260040161029290610736565b60405180910390fd5b6102af674511040b70ce558d60c01b610571565b6102c36721765e6ecc5325fd60c01b610571565b600454600254436102d491906106a5565b6102de9190610756565b6001546102eb91906106a5565b60038190555061030567ac589f947fd3a2be60c01b610571565b61031866243c5bd0d550ea60c01b610571565b61032c675335916fe2c786ca60c01b610571565b600354341015610371576040517f08c379a0000000000000000000000000000000000000000000000000000000008152600401610368906107e4565b60405180910390fd5b610385676c171f624111ecb160c01b610571565b61039967e76b00e1a619e10760c01b610571565b6103ad678a8c84b2e552e39b60c01b610571565b60008060009054906101000a900473ffffffffffffffffffffffffffffffffffffffff1673ffffffffffffffffffffffffffffffffffffffff16346040516103f490610835565b60006040518083038185875af1925050503d8060008114610431576040519150601f19603f3d011682016040523d82523d6000602084013e610436565b606091505b5050905061044e675f5e79984d53a8ec60c01b610571565b61046267db115e87678c9de360c01b610571565b61047667e7a0b14fa99399ef60c01b610571565b806104b6576040517f08c379a00000000000000000000000000000000000000000000000000000000081526004016104ad90610896565b60405180910390fd5b6104ca672c418c9eb5b68d5260c01b610571565b6104de67251fe5a928875f5560c01b610571565b6000600660006101000a81548160ff02191690831515021790555061050d6765fd936cca6ee33460c01b610571565b6105216768a91f3bdcd08d7060c01b610571565b3391505090565b60015481565b60008054906101000a900473ffffffffffffffffffffffffffffffffffffffff1681565b60035481565b60025481565b600660009054906101000a900460ff1681565b50565b600073ffffffffffffffffffffffffffffffffffffffff82169050919050565b600061059f82610574565b9050919050565b6105af81610594565b82525050565b60006020820190506105ca60008301846105a6565b92915050565b6000819050919050565b6105e3816105d0565b82525050565b60006020820190506105fe60008301846105da565b92915050565b600061060f82610574565b9050919050565b61061f81610604565b82525050565b600060208201905061063a6000830184610616565b92915050565b60008115159050919050565b61065581610640565b82525050565b6000602082019050610670600083018461064c565b92915050565b7f4e487b7100000000000000000000000000000000000000000000000000000000600052601160045260246000fd5b60006106b0826105d0565b91506106bb836105d0565b92508282039050818111156106d3576106d2610676565b5b92915050565b600082825260208201905092915050565b7f41756374696f6e20636c6f736564000000000000000000000000000000000000600082015250565b6000610720600e836106d9565b915061072b826106ea565b602082019050919050565b6000602082019050818103600083015261074f81610713565b9050919050565b6000610761826105d0565b915061076c836105d0565b925082820261077a816105d0565b9150828204841483151761079157610790610676565b5b5092915050565b7f62696420746f6f206c6f77000000000000000000000000000000000000000000600082015250565b60006107ce600b836106d9565b91506107d982610798565b602082019050919050565b600060208201905081810360008301526107fd816107c1565b9050919050565b600081905092915050565b50565b600061081f600083610804565b915061082a8261080f565b600082019050919050565b600061084082610812565b9150819050919050565b7f7472616e73666572206661696c65640000000000000000000000000000000000600082015250565b6000610880600f836106d9565b915061088b8261084a565b602082019050919050565b600060208201905081810360008301526108af81610873565b905091905056fea2646970667358221220bbecfaad2e0865ce7e4794a86689d90f58e854b8585360eb6f9db7898dfba49864736f6c63430008120033","opcodes":"PUSH1 0x80 PUSH1 0x40 MSTORE PUSH1 0x1 PUSH1 0x6 PUSH1 0x0 PUSH2 0x100 EXP DUP2 SLOAD DUP2 PUSH1 0xFF MUL NOT AND SWAP1 DUP4 ISZERO ISZERO MUL OR SWAP1 SSTORE POP CALLVALUE DUP1 ISZERO PUSH3 0x2C JUMPI PUSH1 0x0 DUP1 REVERT JUMPDEST POP PUSH1 0x40 MLOAD PUSH3 0xBC9 CODESIZE SUB DUP1 PUSH3 0xBC9 DUP4 CODECOPY DUP2 DUP2 ADD PUSH1 0x40 MSTORE DUP2 ADD SWAP1 PUSH3 0x52 SWAP2 SWAP1 PUSH3 0x1BC JUMP JUMPDEST PUSH3 0x6E PUSH8 0x3E2BC8F3FAF82DB6 PUSH1 0xC0 SHL PUSH3 0x179 PUSH1 0x20 SHL PUSH1 0x20 SHR JUMP JUMPDEST PUSH3 0x8A PUSH8 0xDBFEAAC4466875FA PUSH1 0xC0 SHL PUSH3 0x179 PUSH1 0x20 SHL PUSH1 0x20 SHR JUMP JUMPDEST CALLER PUSH1 0x0 DUP1 PUSH2 0x100 EXP DUP2 SLOAD DUP2 PUSH20 0xFFFFFFFFFFFFFFFFFFFFFFFFFFFFFFFFFFFFFFFF MUL NOT AND SWAP1 DUP4 PUSH20 0xFFFFFFFFFFFFFFFFFFFFFFFFFFFFFFFFFFFFFFFF AND MUL OR SWAP1 SSTORE POP PUSH3 0xE6 PUSH8 0xC39A9F15904B8D1D PUSH1 0xC0 SHL PUSH3 0x179 PUSH1 0x20 SHL PUSH1 0x20 SHR JUMP JUMPDEST DUP1 DUP3 PUSH3 0xF4 SWAP2 SWAP1 PUSH3 0x247 JUMP JUMPDEST DUP4 PUSH3 0x101 SWAP2 SWAP1 PUSH3 0x292 JUMP JUMPDEST PUSH1 0x1 DUP2 SWAP1 SSTORE POP PUSH3 0x123 PUSH8 0xCB51B2FDA93008EC PUSH1 0xC0 SHL PUSH3 0x179 PUSH1 0x20 SHL PUSH1 0x20 SHR JUMP JUMPDEST NUMBER PUSH1 0x2 DUP2 SWAP1 SSTORE POP PUSH3 0x146 PUSH8 0xDC28E5255EE4D553 PUSH1 0xC0 SHL PUSH3 0x179 PUSH1 0x20 SHL PUSH1 0x20 SHR JUMP JUMPDEST DUP1 PUSH1 0x4 DUP2 SWAP1 SSTORE POP PUSH3 0x169 PUSH8 0x5C6C89B87327E371 PUSH1 0xC0 SHL PUSH3 0x179 PUSH1 0x20 SHL PUSH1 0x20 SHR JUMP JUMPDEST DUP2 PUSH1 0x5 DUP2 SWAP1 SSTORE POP POP POP POP PUSH3 0x2CD JUMP JUMPDEST POP JUMP JUMPDEST PUSH1 0x0 DUP1 REVERT JUMPDEST PUSH1 0x0 DUP2 SWAP1 POP SWAP2 SWAP1 POP JUMP JUMPDEST PUSH3 0x196 DUP2 PUSH3 0x181 JUMP JUMPDEST DUP2 EQ PUSH3 0x1A2 JUMPI PUSH1 0x0 DUP1 REVERT JUMPDEST POP JUMP JUMPDEST PUSH1 0x0 DUP2 MLOAD SWAP1 POP PUSH3 0x1B6 DUP2 PUSH3 0x18B JUMP JUMPDEST SWAP3 SWAP2 POP POP JUMP JUMPDEST PUSH1 0x0 DUP1 PUSH1 0x0 PUSH1 0x60 DUP5 DUP7 SUB SLT ISZERO PUSH3 0x1D8 JUMPI PUSH3 0x1D7 PUSH3 0x17C JUMP JUMPDEST JUMPDEST PUSH1 0x0 PUSH3 0x1E8 DUP7 DUP3 DUP8 ADD PUSH3 0x1A5 JUMP JUMPDEST SWAP4 POP POP PUSH1 0x20 PUSH3 0x1FB DUP7 DUP3 DUP8 ADD PUSH3 0x1A5 JUMP JUMPDEST SWAP3 POP POP PUSH1 0x40 PUSH3 0x20E DUP7 DUP3 DUP8 ADD PUSH3 0x1A5 JUMP JUMPDEST SWAP2 POP POP SWAP3 POP SWAP3 POP SWAP3 JUMP JUMPDEST PUSH32 0x4E487B7100000000000000000000000000000000000000000000000000000000 PUSH1 0x0 MSTORE PUSH1 0x11 PUSH1 0x4 MSTORE PUSH1 0x24 PUSH1 0x0 REVERT JUMPDEST PUSH1 0x0 PUSH3 0x254 DUP3 PUSH3 0x181 JUMP JUMPDEST SWAP2 POP PUSH3 0x261 DUP4 PUSH3 0x181 JUMP JUMPDEST SWAP3 POP DUP3 DUP3 MUL PUSH3 0x271 DUP2 PUSH3 0x181 JUMP JUMPDEST SWAP2 POP DUP3 DUP3 DIV DUP5 EQ DUP4 ISZERO OR PUSH3 0x28B JUMPI PUSH3 0x28A PUSH3 0x218 JUMP JUMPDEST JUMPDEST POP SWAP3 SWAP2 POP POP JUMP JUMPDEST PUSH1 0x0 PUSH3 0x29F DUP3 PUSH3 0x181 JUMP JUMPDEST SWAP2 POP PUSH3 0x2AC DUP4 PUSH3 0x181 JUMP JUMPDEST SWAP3 POP DUP3 DUP3 ADD SWAP1 POP DUP1 DUP3 GT ISZERO PUSH3 0x2C7 JUMPI PUSH3 0x2C6 PUSH3 0x218 JUMP JUMPDEST JUMPDEST SWAP3 SWAP2 POP POP JUMP JUMPDEST PUSH2 0x8EC DUP1 PUSH3 0x2DD PUSH1 0x0 CODECOPY PUSH1 0x0 RETURN INVALID PUSH1 0x80 PUSH1 0x40 MSTORE PUSH1 0x4 CALLDATASIZE LT PUSH2 0x55 JUMPI PUSH1 0x0 CALLDATALOAD PUSH1 0xE0 SHR DUP1 PUSH4 0x1998AEEF EQ PUSH2 0x5A JUMPI DUP1 PUSH4 0x1D0806AE EQ PUSH2 0x78 JUMPI DUP1 PUSH4 0x8DA5CB5B EQ PUSH2 0xA3 JUMPI DUP1 PUSH4 0x9D1B464A EQ PUSH2 0xCE JUMPI DUP1 PUSH4 0xD91C98D3 EQ PUSH2 0xF9 JUMPI DUP1 PUSH4 0xFDBA6A2C EQ PUSH2 0x124 JUMPI JUMPDEST PUSH1 0x0 DUP1 REVERT JUMPDEST PUSH2 0x62 PUSH2 0x14F JUMP JUMPDEST PUSH1 0x40 MLOAD PUSH2 0x6F SWAP2 SWAP1 PUSH2 0x5B5 JUMP JUMPDEST PUSH1 0x40 MLOAD DUP1 SWAP2 SUB SWAP1 RETURN JUMPDEST CALLVALUE DUP1 ISZERO PUSH2 0x84 JUMPI PUSH1 0x0 DUP1 REVERT JUMPDEST POP PUSH2 0x8D PUSH2 0x528 JUMP JUMPDEST PUSH1 0x40 MLOAD PUSH2 0x9A SWAP2 SWAP1 PUSH2 0x5E9 JUMP JUMPDEST PUSH1 0x40 MLOAD DUP1 SWAP2 SUB SWAP1 RETURN JUMPDEST CALLVALUE DUP1 ISZERO PUSH2 0xAF JUMPI PUSH1 0x0 DUP1 REVERT JUMPDEST POP PUSH2 0xB8 PUSH2 0x52E JUMP JUMPDEST PUSH1 0x40 MLOAD PUSH2 0xC5 SWAP2 SWAP1 PUSH2 0x625 JUMP JUMPDEST PUSH1 0x40 MLOAD DUP1 SWAP2 SUB SWAP1 RETURN JUMPDEST CALLVALUE DUP1 ISZERO PUSH2 0xDA JUMPI PUSH1 0x0 DUP1 REVERT JUMPDEST POP PUSH2 0xE3 PUSH2 0x552 JUMP JUMPDEST PUSH1 0x40 MLOAD PUSH2 0xF0 SWAP2 SWAP1 PUSH2 0x5E9 JUMP JUMPDEST PUSH1 0x40 MLOAD DUP1 SWAP2 SUB SWAP1 RETURN JUMPDEST CALLVALUE DUP1 ISZERO PUSH2 0x105 JUMPI PUSH1 0x0 DUP1 REVERT JUMPDEST POP PUSH2 0x10E PUSH2 0x558 JUMP JUMPDEST PUSH1 0x40 MLOAD PUSH2 0x11B SWAP2 SWAP1 PUSH2 0x5E9 JUMP JUMPDEST PUSH1 0x40 MLOAD DUP1 SWAP2 SUB SWAP1 RETURN JUMPDEST CALLVALUE DUP1 ISZERO PUSH2 0x130 JUMPI PUSH1 0x0 DUP1 REVERT JUMPDEST POP PUSH2 0x139 PUSH2 0x55E JUMP JUMPDEST PUSH1 0x40 MLOAD PUSH2 0x146 SWAP2 SWAP1 PUSH2 0x65B JUMP JUMPDEST PUSH1 0x40 MLOAD DUP1 SWAP2 SUB SWAP1 RETURN JUMPDEST PUSH1 0x0 PUSH2 0x165 PUSH8 0x3E1C635EA87B3468 PUSH1 0xC0 SHL PUSH2 0x571 JUMP JUMPDEST PUSH2 0x179 PUSH8 0xF040A142A46AB811 PUSH1 0xC0 SHL PUSH2 0x571 JUMP JUMPDEST PUSH2 0x18D PUSH8 0x18F807D315DF2A06 PUSH1 0xC0 SHL PUSH2 0x571 JUMP JUMPDEST PUSH1 0x6 PUSH1 0x0 SWAP1 SLOAD SWAP1 PUSH2 0x100 EXP SWAP1 DIV PUSH1 0xFF AND ISZERO PUSH2 0x1FB JUMPI PUSH2 0x1B6 PUSH8 0xC6D62532CD0A91B1 PUSH1 0xC0 SHL PUSH2 0x571 JUMP JUMPDEST PUSH2 0x1CA PUSH8 0xD35A4BE0E362BDC1 PUSH1 0xC0 SHL PUSH2 0x571 JUMP JUMPDEST PUSH1 0x5 SLOAD PUSH1 0x2 SLOAD NUMBER PUSH2 0x1DB SWAP2 SWAP1 PUSH2 0x6A5 JUMP JUMPDEST GT ISZERO PUSH1 0x6 PUSH1 0x0 PUSH2 0x100 EXP DUP2 SLOAD DUP2 PUSH1 0xFF MUL NOT AND SWAP1 DUP4 ISZERO ISZERO MUL OR SWAP1 SSTORE POP PUSH2 0x210 JUMP JUMPDEST PUSH2 0x20F PUSH8 0x903D9D2C014BA576 PUSH1 0xC0 SHL PUSH2 0x571 JUMP JUMPDEST JUMPDEST PUSH2 0x224 PUSH8 0x5A51E03BEA53C08 PUSH1 0xC0 SHL PUSH2 0x571 JUMP JUMPDEST PUSH2 0x238 PUSH8 0x6E6E7129A940198 PUSH1 0xC0 SHL PUSH2 0x571 JUMP JUMPDEST PUSH2 0x24C PUSH8 0x992E8CAD83EC9E88 PUSH1 0xC0 SHL PUSH2 0x571 JUMP JUMPDEST PUSH1 0x6 PUSH1 0x0 SWAP1 SLOAD SWAP1 PUSH2 0x100 EXP SWAP1 DIV PUSH1 0xFF AND PUSH2 0x29B JUMPI PUSH1 0x40 MLOAD PUSH32 0x8C379A000000000000000000000000000000000000000000000000000000000 DUP2 MSTORE PUSH1 0x4 ADD PUSH2 0x292 SWAP1 PUSH2 0x736 JUMP JUMPDEST PUSH1 0x40 MLOAD DUP1 SWAP2 SUB SWAP1 REVERT JUMPDEST PUSH2 0x2AF PUSH8 0x4511040B70CE558D PUSH1 0xC0 SHL PUSH2 0x571 JUMP JUMPDEST PUSH2 0x2C3 PUSH8 0x21765E6ECC5325FD PUSH1 0xC0 SHL PUSH2 0x571 JUMP JUMPDEST PUSH1 0x4 SLOAD PUSH1 0x2 SLOAD NUMBER PUSH2 0x2D4 SWAP2 SWAP1 PUSH2 0x6A5 JUMP JUMPDEST PUSH2 0x2DE SWAP2 SWAP1 PUSH2 0x756 JUMP JUMPDEST PUSH1 0x1 SLOAD PUSH2 0x2EB SWAP2 SWAP1 PUSH2 0x6A5 JUMP JUMPDEST PUSH1 0x3 DUP2 SWAP1 SSTORE POP PUSH2 0x305 PUSH8 0xAC589F947FD3A2BE PUSH1 0xC0 SHL PUSH2 0x571 JUMP JUMPDEST PUSH2 0x318 PUSH7 0x243C5BD0D550EA PUSH1 0xC0 SHL PUSH2 0x571 JUMP JUMPDEST PUSH2 0x32C PUSH8 0x5335916FE2C786CA PUSH1 0xC0 SHL PUSH2 0x571 JUMP JUMPDEST PUSH1 0x3 SLOAD CALLVALUE LT ISZERO PUSH2 0x371 JUMPI PUSH1 0x40 MLOAD PUSH32 0x8C379A000000000000000000000000000000000000000000000000000000000 DUP2 MSTORE PUSH1 0x4 ADD PUSH2 0x368 SWAP1 PUSH2 0x7E4 JUMP JUMPDEST PUSH1 0x40 MLOAD DUP1 SWAP2 SUB SWAP1 REVERT JUMPDEST PUSH2 0x385 PUSH8 0x6C171F624111ECB1 PUSH1 0xC0 SHL PUSH2 0x571 JUMP JUMPDEST PUSH2 0x399 PUSH8 0xE76B00E1A619E107 PUSH1 0xC0 SHL PUSH2 0x571 JUMP JUMPDEST PUSH2 0x3AD PUSH8 0x8A8C84B2E552E39B PUSH1 0xC0 SHL PUSH2 0x571 JUMP JUMPDEST PUSH1 0x0 DUP1 PUSH1 0x0 SWAP1 SLOAD SWAP1 PUSH2 0x100 EXP SWAP1 DIV PUSH20 0xFFFFFFFFFFFFFFFFFFFFFFFFFFFFFFFFFFFFFFFF AND PUSH20 0xFFFFFFFFFFFFFFFFFFFFFFFFFFFFFFFFFFFFFFFF AND CALLVALUE PUSH1 0x40 MLOAD PUSH2 0x3F4 SWAP1 PUSH2 0x835 JUMP JUMPDEST PUSH1 0x0 PUSH1 0x40 MLOAD DUP1 DUP4 SUB DUP2 DUP6 DUP8 GAS CALL SWAP3 POP POP POP RETURNDATASIZE DUP1 PUSH1 0x0 DUP2 EQ PUSH2 0x431 JUMPI PUSH1 0x40 MLOAD SWAP2 POP PUSH1 0x1F NOT PUSH1 0x3F RETURNDATASIZE ADD AND DUP3 ADD PUSH1 0x40 MSTORE RETURNDATASIZE DUP3 MSTORE RETURNDATASIZE PUSH1 0x0 PUSH1 0x20 DUP5 ADD RETURNDATACOPY PUSH2 0x436 JUMP JUMPDEST PUSH1 0x60 SWAP2 POP JUMPDEST POP POP SWAP1 POP PUSH2 0x44E PUSH8 0x5F5E79984D53A8EC PUSH1 0xC0 SHL PUSH2 0x571 JUMP JUMPDEST PUSH2 0x462 PUSH8 0xDB115E87678C9DE3 PUSH1 0xC0 SHL PUSH2 0x571 JUMP JUMPDEST PUSH2 0x476 PUSH8 0xE7A0B14FA99399EF PUSH1 0xC0 SHL PUSH2 0x571 JUMP JUMPDEST DUP1 PUSH2 0x4B6 JUMPI PUSH1 0x40 MLOAD PUSH32 0x8C379A000000000000000000000000000000000000000000000000000000000 DUP2 MSTORE PUSH1 0x4 ADD PUSH2 0x4AD SWAP1 PUSH2 0x896 JUMP JUMPDEST PUSH1 0x40 MLOAD DUP1 SWAP2 SUB SWAP1 REVERT JUMPDEST PUSH2 0x4CA PUSH8 0x2C418C9EB5B68D52 PUSH1 0xC0 SHL PUSH2 0x571 JUMP JUMPDEST PUSH2 0x4DE PUSH8 0x251FE5A928875F55 PUSH1 0xC0 SHL PUSH2 0x571 JUMP JUMPDEST PUSH1 0x0 PUSH1 0x6 PUSH1 0x0 PUSH2 0x100 EXP DUP2 SLOAD DUP2 PUSH1 0xFF MUL NOT AND SWAP1 DUP4 ISZERO ISZERO MUL OR SWAP1 SSTORE POP PUSH2 0x50D PUSH8 0x65FD936CCA6EE334 PUSH1 0xC0 SHL PUSH2 0x571 JUMP JUMPDEST PUSH2 0x521 PUSH8 0x68A91F3BDCD08D70 PUSH1 0xC0 SHL PUSH2 0x571 JUMP JUMPDEST CALLER SWAP2 POP POP SWAP1 JUMP JUMPDEST PUSH1 0x1 SLOAD DUP2 JUMP JUMPDEST PUSH1 0x0 DUP1 SLOAD SWAP1 PUSH2 0x100 EXP SWAP1 DIV PUSH20 0xFFFFFFFFFFFFFFFFFFFFFFFFFFFFFFFFFFFFFFFF AND DUP2 JUMP JUMPDEST PUSH1 0x3 SLOAD DUP2 JUMP JUMPDEST PUSH1 0x2 SLOAD DUP2 JUMP JUMPDEST PUSH1 0x6 PUSH1 0x0 SWAP1 SLOAD SWAP1 PUSH2 0x100 EXP SWAP1 DIV PUSH1 0xFF AND DUP2 JUMP JUMPDEST POP JUMP JUMPDEST PUSH1 0x0 PUSH20 0xFFFFFFFFFFFFFFFFFFFFFFFFFFFFFFFFFFFFFFFF DUP3 AND SWAP1 POP SWAP2 SWAP1 POP JUMP JUMPDEST PUSH1 0x0 PUSH2 0x59F DUP3 PUSH2 0x574 JUMP JUMPDEST SWAP1 POP SWAP2 SWAP1 POP JUMP JUMPDEST PUSH2 0x5AF DUP2 PUSH2 0x594 JUMP JUMPDEST DUP3 MSTORE POP POP JUMP JUMPDEST PUSH1 0x0 PUSH1 0x20 DUP3 ADD SWAP1 POP PUSH2 0x5CA PUSH1 0x0 DUP4 ADD DUP5 PUSH2 0x5A6 JUMP JUMPDEST SWAP3 SWAP2 POP POP JUMP JUMPDEST PUSH1 0x0 DUP2 SWAP1 POP SWAP2 SWAP1 POP JUMP JUMPDEST PUSH2 0x5E3 DUP2 PUSH2 0x5D0 JUMP JUMPDEST DUP3 MSTORE POP POP JUMP JUMPDEST PUSH1 0x0 PUSH1 0x20 DUP3 ADD SWAP1 POP PUSH2 0x5FE PUSH1 0x0 DUP4 ADD DUP5 PUSH2 0x5DA JUMP JUMPDEST SWAP3 SWAP2 POP POP JUMP JUMPDEST PUSH1 0x0 PUSH2 0x60F DUP3 PUSH2 0x574 JUMP JUMPDEST SWAP1 POP SWAP2 SWAP1 POP JUMP JUMPDEST PUSH2 0x61F DUP2 PUSH2 0x604 JUMP JUMPDEST DUP3 MSTORE POP POP JUMP JUMPDEST PUSH1 0x0 PUSH1 0x20 DUP3 ADD SWAP1 POP PUSH2 0x63A PUSH1 0x0 DUP4 ADD DUP5 PUSH2 0x616 JUMP JUMPDEST SWAP3 SWAP2 POP POP JUMP JUMPDEST PUSH1 0x0 DUP2 ISZERO ISZERO SWAP1 POP SWAP2 SWAP1 POP JUMP JUMPDEST PUSH2 0x655 DUP2 PUSH2 0x640 JUMP JUMPDEST DUP3 MSTORE POP POP JUMP JUMPDEST PUSH1 0x0 PUSH1 0x20 DUP3 ADD SWAP1 POP PUSH2 0x670 PUSH1 0x0 DUP4 ADD DUP5 PUSH2 0x64C JUMP JUMPDEST SWAP3 SWAP2 POP POP JUMP JUMPDEST PUSH32 0x4E487B7100000000000000000000000000000000000000000000000000000000 PUSH1 0x0 MSTORE PUSH1 0x11 PUSH1 0x4 MSTORE PUSH1 0x24 PUSH1 0x0 REVERT JUMPDEST PUSH1 0x0 PUSH2 0x6B0 DUP3 PUSH2 0x5D0 JUMP JUMPDEST SWAP2 POP PUSH2 0x6BB DUP4 PUSH2 0x5D0 JUMP JUMPDEST SWAP3 POP DUP3 DUP3 SUB SWAP1 POP DUP2 DUP2 GT ISZERO PUSH2 0x6D3 JUMPI PUSH2 0x6D2 PUSH2 0x676 JUMP JUMPDEST JUMPDEST SWAP3 SWAP2 POP POP JUMP JUMPDEST PUSH1 0x0 DUP3 DUP3 MSTORE PUSH1 0x20 DUP3 ADD SWAP1 POP SWAP3 SWAP2 POP POP JUMP JUMPDEST PUSH32 0x41756374696F6E20636C6F736564000000000000000000000000000000000000 PUSH1 0x0 DUP3 ADD MSTORE POP JUMP JUMPDEST PUSH1 0x0 PUSH2 0x720 PUSH1 0xE DUP4 PUSH2 0x6D9 JUMP JUMPDEST SWAP2 POP PUSH2 0x72B DUP3 PUSH2 0x6EA JUMP JUMPDEST PUSH1 0x20 DUP3 ADD SWAP1 POP SWAP2 SWAP1 POP JUMP JUMPDEST PUSH1 0x0 PUSH1 0x20 DUP3 ADD SWAP1 POP DUP2 DUP2 SUB PUSH1 0x0 DUP4 ADD MSTORE PUSH2 0x74F DUP2 PUSH2 0x713 JUMP JUMPDEST SWAP1 POP SWAP2 SWAP1 POP JUMP JUMPDEST PUSH1 0x0 PUSH2 0x761 DUP3 PUSH2 0x5D0 JUMP JUMPDEST SWAP2 POP PUSH2 0x76C DUP4 PUSH2 0x5D0 JUMP JUMPDEST SWAP3 POP DUP3 DUP3 MUL PUSH2 0x77A DUP2 PUSH2 0x5D0 JUMP JUMPDEST SWAP2 POP DUP3 DUP3 DIV DUP5 EQ DUP4 ISZERO OR PUSH2 0x791 JUMPI PUSH2 0x790 PUSH2 0x676 JUMP JUMPDEST JUMPDEST POP SWAP3 SWAP2 POP POP JUMP JUMPDEST PUSH32 0x62696420746F6F206C6F77000000000000000000000000000000000000000000 PUSH1 0x0 DUP3 ADD MSTORE POP JUMP JUMPDEST PUSH1 0x0 PUSH2 0x7CE PUSH1 0xB DUP4 PUSH2 0x6D9 JUMP JUMPDEST SWAP2 POP PUSH2 0x7D9 DUP3 PUSH2 0x798 JUMP JUMPDEST PUSH1 0x20 DUP3 ADD SWAP1 POP SWAP2 SWAP1 POP JUMP JUMPDEST PUSH1 0x0 PUSH1 0x20 DUP3 ADD SWAP1 POP DUP2 DUP2 SUB PUSH1 0x0 DUP4 ADD MSTORE PUSH2 0x7FD DUP2 PUSH2 0x7C1 JUMP JUMPDEST SWAP1 POP SWAP2 SWAP1 POP JUMP JUMPDEST PUSH1 0x0 DUP2 SWAP1 POP SWAP3 SWAP2 POP POP JUMP JUMPDEST POP JUMP JUMPDEST PUSH1 0x0 PUSH2 0x81F PUSH1 0x0 DUP4 PUSH2 0x804 JUMP JUMPDEST SWAP2 POP PUSH2 0x82A DUP3 PUSH2 0x80F JUMP JUMPDEST PUSH1 0x0 DUP3 ADD SWAP1 POP SWAP2 SWAP1 POP JUMP JUMPDEST PUSH1 0x0 PUSH2 0x840 DUP3 PUSH2 0x812 JUMP JUMPDEST SWAP2 POP DUP2 SWAP1 POP SWAP2 SWAP1 POP JUMP JUMPDEST PUSH32 0x7472616E73666572206661696C65640000000000000000000000000000000000 PUSH1 0x0 DUP3 ADD MSTORE POP JUMP JUMPDEST PUSH1 0x0 PUSH2 0x880 PUSH1 0xF DUP4 PUSH2 0x6D9 JUMP JUMPDEST SWAP2 POP PUSH2 0x88B DUP3 PUSH2 0x84A JUMP JUMPDEST PUSH1 0x20 DUP3 ADD SWAP1 POP SWAP2 SWAP1 POP JUMP JUMPDEST PUSH1 0x0 PUSH1 0x20 DUP3 ADD SWAP1 POP DUP2 DUP2 SUB PUSH1 0x0 DUP4 ADD MSTORE PUSH2 0x8AF DUP2 PUSH2 0x873 JUMP JUMPDEST SWAP1 POP SWAP2 SWAP1 POP JUMP INVALID LOG2 PUSH5 0x6970667358 0x22 SLT KECCAK256 0xBB 0xEC STATICCALL 0xAD 0x2E ADDMOD PUSH6 0xCE7E4794A866 DUP10 0xD9 0xF PC 0xE8 SLOAD 0xB8 PC MSTORE8 PUSH1 0xEB PUSH16 0x9DB7898DFBA49864736F6C6343000812 STOP CALLER "},"methodIdentifiers":{"acceptingBids()":"fdba6a2c","bid()":"1998aeef","currentPrice()":"9d1b464a","initialPrice()":"1d0806ae","owner()":"8da5cb5b","startingBlock()":"d91c98d3"}}}}}